{
  "contractName": "SimpleStorage",
  "abi": [
    {
      "constant": false,
      "inputs": [
        {
          "internalType": "uint256",
          "name": "x",
          "type": "uint256"
        }
      ],
      "name": "set",
      "outputs": [],
      "payable": false,
      "stateMutability": "nonpayable",
      "type": "function"
    },
    {
      "constant": true,
      "inputs": [],
      "name": "getData",
      "outputs": [
        {
          "internalType": "uint256",
          "name": "",
          "type": "uint256"
        }
      ],
      "payable": false,
      "stateMutability": "view",
      "type": "function"
    },
    {
      "constant": true,
      "inputs": [],
      "name": "getAddress",
      "outputs": [
        {
          "internalType": "address",
          "name": "",
          "type": "address"
        }
      ],
      "payable": false,
      "stateMutability": "view",
      "type": "function"
    },
    {
      "constant": true,
      "inputs": [],
      "name": "getTime",
      "outputs": [
        {
          "internalType": "uint256",
          "name": "",
          "type": "uint256"
        }
      ],
      "payable": false,
      "stateMutability": "view",
      "type": "function"
    },
    {
      "constant": true,
      "inputs": [],
      "name": "getBlock",
      "outputs": [
        {
          "internalType": "uint256",
          "name": "",
          "type": "uint256"
        }
      ],
      "payable": false,
      "stateMutability": "view",
      "type": "function"
    }
  ],
  "bytecode": "0x608060405234801561001057600080fd5b50610203806100206000396000f3fe608060405234801561001057600080fd5b50600436106100575760003560e01c80632e97766d1461005c57806338cc48311461007a5780633bc5de30146100c4578063557ed1ba146100e257806360fe47b114610100575b600080fd5b61006461012e565b6040518082815260200191505060405180910390f35b610082610138565b604051808273ffffffffffffffffffffffffffffffffffffffff1673ffffffffffffffffffffffffffffffffffffffff16815260200191505060405180910390f35b6100cc610162565b6040518082815260200191505060405180910390f35b6100ea61016b565b6040518082815260200191505060405180910390f35b61012c6004803603602081101561011657600080fd5b8101908080359060200190929190505050610175565b005b6000600354905090565b6000600160009054906101000a900473ffffffffffffffffffffffffffffffffffffffff16905090565b60008054905090565b6000600254905090565b8060008190555033600160006101000a81548173ffffffffffffffffffffffffffffffffffffffff021916908373ffffffffffffffffffffffffffffffffffffffff16021790555042600281905550436003819055505056fea265627a7a72315820883e08d1450ec3903e5a358252943dc84e044d449b991a1722ce0b123ea4be5d64736f6c63430005100032",
  "source": "// SPDX-License-Identifier: MIT\r\npragma solidity >=0.4.22 <0.9.0;\r\n\r\ncontract SimpleStorage {\r\n\r\n  uint storedData;\r\n  address recent;\r\n  uint time;\r\n  uint blocknum;\r\n\r\n  function set(uint x) public {\r\n    storedData = x;                 //set data to input value\r\n    recent = msg.sender;            //capture address of most recent user\r\n    time = block.timestamp;         //capture epoch timestamp of recent interaction \r\n    blocknum = block.number;        //capture block number\r\n  }\r\n\r\n  function getData() public view returns (uint) {\r\n    return storedData;\r\n  }\r\n  \r\n  function getAddress() public view returns (address) {\r\n      return recent;\r\n  }\r\n  \r\n  function getTime() public view returns (uint) {\r\n      return time;\r\n  }\r\n  \r\n  function getBlock() public view returns (uint) {\r\n      return blocknum;\r\n  }\r\n}\r\n\r\n",
  "sourcePath": "C:/Users/joema/Desktop/ethereum-projects/storage/contracts/SimpleStorage.sol",
  "compiler": {
    "name": "solc",
    "version": "0.5.16+commit.9c3226ce.Emscripten.clang"
  },
  "schemaVersion": "3.3.3",
  "updatedAt": "2021-08-15T22:25:10.987Z",
  "networkType": "ethereum",
  "devdoc": {
    "methods": {}
  },
  "userdoc": {
    "methods": {}
  }
}